:100000000C945D010C948E010C948E010C948E0165
:100010000C948E010C948E010C948E010C948E0124
:100020000C948E010C948E010C948E010C948E0114
:100030000C948E010C94640A0C948E010C948E0125
:100040000C948E010C94360A0C948E010C948E0143
:100050000C948E010C948E010C948E010C94320C35
:100060000C948E010C9476090C944C090C948E011E
:100070000C948E010C948E010C948E010C948E01C4
:100080000C94080A0C948E010C948E010C948E0131
:100090000C948E010C948E010C948E010C942C0502
:1000A0000C948E010C948E010C94DA090C948E0140
:1000B0000C948E010C948E010C948E010C94AC095E
:1000C0000C948E010C948E010C948E010C948E0174
:1000D0000C948E010C948E010C948E010C948E0164
:1000E0000C948E01750B780B670B6B0B710BAF0BC0
:1000F0007C0B800B860B8A0B8E0B940B980B9C0B46
:10010000AF0BA20BA60BAA0B0C947C0B0C94860BCA
:100110000C9420020C9430020C94A60B0C94A20BAD
:100120000C94780B0C9479020C948A0B0C947F0736
:100130000C948E0B0C94D9070C9470070C94E30A62
:100140000C944C020C946D070C94AA0B0C94750B38
:100150000C944A090C9442070C9493070C94AF0B2F
:100160000C94E0160C94670B0C94710B0C941E020B
:100170000C94980B0C9421020C941F020C94A10770
:100180000C949C0B0C94800B0C94940B0C944402D8
:100190000C946B0B0C94260800002200250028000C
:1001A0002B002E003100340002010000050108017F
:1001B0000B01000020002300260029002C002F0046
:1001C00032000001000003010601090105050505D3
:1001D000070508080808020202020A0A08080404BF
:1001E00004040101010101010101030303030303ED
:1001F0000303040707070C0C0C0C0C0C0C0C02027C
:10020000020206060606060606060B0B0B0B0B0B78
:100210000B0B010210202008081020401020408005
:1002200002010201080402010102040810204080BA
:100230008040201008040201800402018040201048
:100240000804020108040201010204081020408091
:10025000010204081020408000000A0B02090C0D66
:100260000E08070304010000000000000000000069
:10027000000000000000000000000000000000007E
:10028000000000001211100000000000000000003B
:10029000000000000000000000000000000000005E
:1002A0002100240027002A002D0030003300010126
:1002B0000000040107010A01E01611241FBECFEF60
:1002C000D1E2DEBFCDBF00E00CBF14E0A0E0B2E0A1
:1002D000E2EFF6E300E00BBF02C007900D92A035FD
:1002E000B107D9F726E0A0E5B4E001C01D92AB3A12
:1002F000B207E1F711E0CDE5D1E000E006C02197BB
:100300000109802FFE010E940618CC35D10780E03C
:100310000807A9F70E947C0C0C94771B0C94000032
:10032000282F3091A004313208F04AC080919E04F9
:100330008111FCCF9091990642E040939E04209356
:100340009D042FEF20937706109276063093750662
:10035000E9E7F6E0A5E5B6E020E0321721F04191AB
:100360004D932F5FFACF1092540620915406990FA7
:10037000922B9093540690919C04913061F41092CA
:100380009C04909154069093BB009091BC0093FD07
:10039000F8CF95EC01C095EE9093BC0090919E042F
:1003A0009230E1F3909177069F3F79F08091770644
:1003B000803241F080917706803331F084E005C0CF
:1003C00081E003C082E001C083E010929F0410929C
:1003D000A00410927806089585ED8093BC0080916A
:1003E000BC0084FDFCCF10929E040895409111063C
:1003F000262F30E0240F311D21323105DCF420910D
:100400009E042430C9F4FC0180E090E0861758F483
:10041000309111062191DC01AF50BA4FA30FB11DED
:100420002C930196F3CF80911106680F609311060B
:1004300080E0089581E0089582E008950895089588
:100440000895E0919B0480919A04E81730F4F0E05D
:10045000EC5CF94F808190E008958FEF9FEF089555
:1004600090919B0480919A04981750F4E92FF0E042
:10047000EC5CF94F208130E09F5F90939B0402C0B9
:100480002FEF3FEFC901089580919A0490E02091E9
:100490009B04821B91090895CF92DF92EF92FF9205
:1004A0000F931F93CF93DF937C01CB018A0120919F
:1004B0007806222389F0EB016B01C40ED51ECC1502
:1004C000DD0569F06991D701ED91FC910190F08112
:1004D000E02DC7011995F3CF642F0E94F601C801E2
:1004E000DF91CF911F910F91FF90EF90DF90CF9010
:1004F0000895CF93DF931F92CDB7DEB76983209124
:1005000078062223D1F02091A004203240F021E08F
:1005100030E0FC013383228380E090E015C08091BD
:100520009F04E82FF0E0E758F94F998190838F5F9F
:1005300080939F048093A00405C061E0CE010196E2
:100540000E94F60181E090E00F90DF91CF91089535
:10055000009769F0FC0101900020E9F73197AF01A5
:10056000481B590BBC018DEA94E00C94420780E0D3
:1005700090E0089580E494E00C94A802CF93DF9378
:100580000E94A802EC010E94BA028C0F9D1FDF910D
:10059000CF9108958F929F92AF92BF920F931F9326
:1005A000CF93DF93CDB7DEB7A1970FB6F894DEBF38
:1005B0000FBECDBF19A2423008F44AE08E010F5D94
:1005C0001F4F842E912CA12CB12CA50194010E94C7
:1005D000C917E62FB901CA0101501109EA3014F414
:1005E000E05D01C0E95CD801EC93232B242B252B83
:1005F00061F7C8010E94A802A1960FB6F894DEBF69
:100600000FBECDBFDF91CF911F910F91BF90AF90E3
:100610009F908F9008958F929F92AF92BF92CF92AA
:10062000DF92EF92FF920F931F93CF93DF936B01B3
:100630007C01142F9B01AC010E944C1A882319F0F5
:1006400083E494E027C046015701E894B7F82FEF00
:100650003FEF4FE75FE7C501B4010E944C1A8111DB
:100660000DC02FEF3FEF4FE75FE7C501B4010E94D8
:10067000821818161CF487E494E00CC02FEF3FEFAB
:100680004FE75FE4C701B6010E94DA19181684F437
:100690008BE494E0DF91CF911F910F91FF90EF9049
:1006A000DF90CF90BF90AF909F908F900C94A80256
:1006B0002FEF3FEF4FE75FECC701B6010E948218B2
:1006C00087FDE6CF20E030E0A901C701B6010E9416
:1006D000821887FF0BC06DE28DEA94E00E94D90773
:1006E000EC01F7FAF094F7F8F09402C0C0E0D0E023
:1006F00000E060E070E080E09FE3101741F020E050
:1007000030E040E251E40E9487180F5FF6CFA70166
:1007100096010E9416186B017C010E94F9184B018A
:100720005C014AE00E94CA02C80FD91F1123B9F127
:10073000C501B4010E9428199B01AC01C701B60193
:100740000E9415186B017C016EE28DEA94E00E9414
:10075000D907C80FD91F20E030E040E251E4C701BB
:10076000B6010E94DF194B015C010E94F9186B0170
:10077000E12CF12C4AE0C701B6010E94CA02C80F61
:10078000D91FC701B6010E9428199B01AC01C50100
:10079000B4010E9415186B017C011150E1F6CE01E5
:1007A000DF91CF911F910F91FF90EF90DF90CF904D
:1007B000BF90AF909F908F9008950C940B030C9472
:1007C000A802BC019091EC05903398F58091ED055D
:1007D00028E830E0281B310987FD3395220F331FAD
:1007E000220F331F621773078CF08091EE0548E5E6
:1007F00052E0481B510987FD5395440F551F440F84
:10080000551F9B01461757070CF49A0122503109D6
:10081000220F331F4FB7F894892F90E0FC01EE0FA1
:10082000FF1F8E0F9F1FFC01E65BFA4F328321836F
:100830004FBF0895CF92DF92EF92FF92803222E075
:1008400092070CF03FC097FD06C0853B91052CF048
:1008500084EB90E002C080E090E02091ED0548E854
:1008600050E06A01C21AD10827FDD394CC0CDD1CDC
:10087000CC0CDD1C0D2C000CEE08FF084091EE05A1
:1008800028E532E0241B310947FD3395220F331F41
:10089000220F331FA901330F660B770B9A01AB01AF
:1008A0002C193D094E095F09DC010E94C11724EB98
:1008B00030E040E050E00E949717C20ED31EE41EC5
:1008C000F51EC601FF90EF90DF90CF900C94E103EE
:1008D000CF93DF930E940B03EC010E94BA028C0FAE
:1008E0009D1FDF91CF910895FF920F931F93CF9398
:1008F000DF936091DE057091DF05813059F038F0AB
:10090000823059F0833061F0636871600BC06368B6
:10091000716408C06368716505C06368716602C070
:1009200063687167EB01D0688091DB05FF24F39465
:10093000F09278068093990610929F041092A0047A
:1009400061E081EA94E00E9479026D2F81EA94E0EF
:100950000E9479026C2F81EA94E00E94790281E082
:100960000E9490016091DC0570E080E090E00E94C0
:10097000EC0BC091DB05F0927806C09399061092BB
:100980009F041092A00460E081EA94E00E94790242
:1009900081E00E94900180919E048111FCCF81E052
:1009A00080939E0480939D049FEF9093770610920E
:1009B0007606809375068093540680915406CC0F7A
:1009C000C82BC093540680919C04813061F410922E
:1009D0009C04809154068093BB008091BC0083FDF1
:1009E000F8CF85EC01C085EE8093BC0080919E0419
:1009F0008130E1F380917606823018F4909176068A
:100A000001C092E0A5E5B6E0E4E3F6E080E08917F6
:100A100021F02D9121938F5FFACF10929B04809348
:100A20009A0481EA94E00E943002C82F81EA94E09F
:100A30000E9430021C2F00E09801282BC901009071
:100A4000DD0502C0969587950A94E2F7DF91CF9174
:100A50001F910F91FF9008951F920F920FB60F9262
:100A600011240BB60F922F933F934F935F936F9385
:100A70007F938F939F93AF93BF93EF93FF93809157
:100A8000B900887F803609F49CC068F5883209F483
:100A90005BC090F4803109F454C038F4882309F421
:100AA000F6C0883009F44DC0F6C0883109F44CC056
:100AB000803209F45DC0EFC0803409F468C048F4A6
:100AC000803309F455C0883309F0E5C08093770678
:100AD000D8C0803509F44FC0883509F45DC088342A
:100AE00009F0D9C0D6C0883909F4C7C0A8F488373E
:100AF00009F467C038F4883609F463C0803709F414
:100B000060C0C9C0883809F4B8C0803909F45FC032
:100B1000803809F0C0C05BC0803B09F486C038F45F
:100B2000803A09F466C0883A09F47FC0B4C0803CBA
:100B300009F4A7C0883C09F4A4C0883B09F48AC022
:100B4000AAC08091540610C09091760680917506D7
:100B5000981770F5E091760681E08E0F8093760607
:100B6000F0E0EB5AF94F80818093BB0085EC86C0A2
:100B7000809377068EC0E091760681E08E0F809399
:100B800076068091BB00F0E0EB5AF94F808390919C
:100B90007606809175066EC0E091760681E08E0F34
:100BA000809376068091BB00F0E0EB5AF94F80838A
:100BB00080919D0481116DC081E080939C0484EA42
:100BC00061C083E080939E0410923306CFCF809162
:100BD0003306803208F051C0E091330681E08E0F79
:100BE000809333068091BB00F0E0ED5EF94F808387
:100BF000BDCF85EC8093BC0010929E04809133069B
:100C0000803230F4E0913306F0E0ED5EF94F10826F
:100C10006091330670E0E0919804F091990483E1CB
:100C200096E019951092330636C084E080939E04B6
:100C30001092120610921106E0919604F09197041A
:100C4000199580911106811105C081E080931106EC
:100C50001092F105E091120681E08E0F809312064A
:100C6000F0E0EF50FA4F80818093BB009091120624
:100C700080911106981708F479CF85E88093BC001D
:100C80000AC085EC8093BC0010929E0404C01092B0
:100C900077060E94EC01FF91EF91BF91AF919F9178
:100CA0008F917F916F915F914F913F912F910F9015
:100CB0000BBE0F900FBE0F901F901895CF93DF9330
:100CC000282F30E0F901E85AFD4F8491F901EE5EDA
:100CD000FD4FD491F901E453FE4FC491CC2391F020
:100CE00081110E945A0BEC2FF0E0EE0FFF1FEE5423
:100CF000FE4FA591B491EC91ED2381E090E021F4B9
:100D000080E002C080E090E0DF91CF910895CF9322
:100D1000DF93EC018D8181110AC061E08A810E941C
:100D2000B00B60E08B810E94B00B81E08D838B81E2
:100D30000E945E0621E0892B09F020E0822FDF91DE
:100D4000CF9108951F93CF93DF93282F30E0F901BF
:100D5000E85AFD4F8491F901EE5EFD4FD491F901FF
:100D6000E453FE4FC491CC23C1F0162F81110E9491
:100D70005A0BEC2FF0E0EE0FFF1FE856FE4FA59147
:100D8000B4919FB7F894111104C08C91D095D823D9
:100D900002C0EC91DE2BDC939FBFDF91CF911F91BE
:100DA00008958F929F92AF92BF92CF92DF92EF926F
:100DB000FF920F931F93CF93DF9300D0CDB7DEB791
:100DC0008C01C8010E9487068823D9F393E0F92E8D
:100DD000FA948FEFF81203C0C12CD12C26C0AF2C8F
:100DE000B12CF8019280838087E0C82ED12CE12CB1
:100DF00061E0892D0E94A206882D0E945E060C2CBF
:100E000001C0880F0A94EAF7E82A60E0892D0E9461
:100E1000A206F1E0CF1AD10858F7E1E0F0E0EC0FBC
:100E2000FD1FEA0DFB1DE082D3CFF801848190E025
:100E3000C816D9066CF461E082810E94A20660E0C7
:100E4000F80182810E94A206FFEFCF1ADF0AEDCFE0
:100E50002B81205869817A81CB01A0E0B0E0BC01F0
:100E6000CD01822B0F900F900F90DF91CF911F91AA
:100E70000F91FF90EF90DF90CF90BF90AF909F9039
:100E80008F900895CF92DF92EF92FF920F931F936E
:100E9000CF93DF936C017A018B01C0E0D0E0CE15D7
:100EA000DF0581F0D8016D918D01D601ED91FC91A6
:100EB0000190F081E02DC6011995892B11F0219642
:100EC000EECF7E01C701DF91CF911F910F91FF906F
:100ED000EF90DF90CF900895089580E090E008951E
:100EE000FC01538D448D252F30E0842F90E0821B30
:100EF000930B541710F0CF96089501970895FC01B5
:100F0000918D828D981761F0828DDF01A80FB11D40
:100F10005D968C91928D9F5F9F73928F90E0089564
:100F20008FEF9FEF0895FC01918D828D981731F01E
:100F3000828DE80FF11D858D90E008958FEF9FEF72
:100F40000895FC01918D228D892F90E0805C9F4F48
:100F5000821B91098F73992708958DEA94E00E946E
:100F6000A10721E0892B09F420E0822F0895FC01DC
:100F7000848DDF01A80FB11DA35ABF4F2C91848D22
:100F800090E001968F739927848FA689B7892C9357
:100F9000A089B1898C91837080648C93938D848DAA
:100FA000981306C00288F389E02D80818F7D8083AD
:100FB0000895EF92FF920F931F93CF93DF93EC016D
:100FC00081E0888F9B8D8C8D981305C0E889F98905
:100FD000808185FD26C0F62E0B8D10E00F5F1F4F20
:100FE0000F731127E02E8C8DE8120CC00FB607FC92
:100FF000FACFE889F989808185FFF5CFCE010E947B
:10100000B707F1CF8B8DFE01E80FF11DE35AFF4FBB
:10101000F0829FB7F8940B8FEA89FB898081806208
:101020000AC09FB7F894EE89FF896083E889F9893F
:1010300080818370806480839FBF81E090E0DF9136
:10104000CF911F910F91FF90EF900895CF93DF9371
:10105000EC01888D8823C9F0EA89FB89808185FDB0
:1010600005C0A889B9898C9186FD0FC00FB607FC11
:10107000F5CF808185FFF2CFA889B9898C9185FF52
:10108000EDCFCE010E94B707E7CFDF91CF91089552
:1010900080E090E0892B21F00E94AD07811125C0EE
:1010A00080E090E0892B41F080E090E0892B21F0F6
:1010B0000E94000081111CC080E090E0892B41F06B
:1010C00080E090E0892B21F00E940000811113C084
:1010D00080E090E0892BA1F080E090E0892B81F006
:1010E0000E94000081110AC008950E940000D8CF1C
:1010F0000E940000E1CF0E940000EACF0C940000A3
:1011000008950E94721BCF92DF92EF92FF920F938D
:101110001F93CF93DF936C018B017A01EC01C656CC
:10112000D94F888187FF04C0FB011182108224C03F
:101130002CE02C9DC0012D9D900D11242881AC0127
:10114000420F511D27FD5A952091DA0530E04217D4
:10115000530794F42881AC01420F511D27FD5A9585
:101160009A01FA01EE0FFF1F2E0F3F1FF901E65BF8
:10117000FA4F208126FD19C088818F5F88832CE07B
:101180002C9DC0012D9D900D11242881AC01420F92
:10119000511D27FD5A952091DA0530E0421753077B
:1011A000BCF428812C3044F113C02881820F911D9A
:1011B00027FD9A95FC01EE0FFF1F8E0F9F1FFC016C
:1011C000E65BFA4F808160E08F730E94A206D4CF65
:1011D000F80180819181049680349C4918F480E460
:1011E0009CE904C0F801808191810496F701918304
:1011F00080838FEF888345C0F80140815181288129
:10120000BC01620F711D27FD7A959B01FB01EE0F5A
:10121000FF1F2E0F3F1FF901E65BFA4F218132813C
:10122000240F351FF701318320832881AC01420F41
:10123000511D27FD5A959A01FA01EE0FFF1F2E0F3F
:101240003F1FF901E65BFA4F208126FF1AC0288173
:10125000820F911D27FD9A95FC01EE0FFF1F8E0F47
:101260009F1FFC01E65BFA4F808161E08F73DF9185
:10127000CF911F910F91FF90EF90DF90CF900C9442
:10128000A206DF91CF911F910F91FF90EF90DF9019
:10129000CF9008950C94E91A1F920F920FB60F92F7
:1012A00011240BB60F922F933F934F935F936F933D
:1012B0007F938F939F93AF93BF93EF93FF938DEAA9
:1012C00094E00E94B707FF91EF91BF91AF919F917A
:1012D0008F917F916F915F914F913F912F910F90DF
:1012E0000BBE0F900FBE0F901F9018951F920F927C
:1012F0000FB60F9211240BB60F922F938F939F93DB
:10130000EF93FF93E091BD04F091BE048081E091E2
:10131000C304F091C40482FD12C090818091C60480
:101320008F5F8F732091C704821751F0E091C6043C
:10133000F0E0E355FB4F958F8093C60401C0808198
:10134000FF91EF919F918F912F910F900BBE0F9076
:101350000FBE0F901F9018951F920F920FB60F920D
:1013600011240BB60F922F933F934F935F936F937C
:101370007F938F939F93AF93BF93EF93FF9348E235
:1013800051E064E271E080E090E00E948308FF9108
:10139000EF91BF91AF919F918F917F916F915F91ED
:1013A0004F913F912F910F900BBE0F900FBE0F905A
:1013B0001F9018951F920F920FB60F9211240BB623
:1013C0000F922F933F934F935F936F937F938F93DE
:1013D0009F93AF93BF93EF93FF9348EA50E064EA83
:1013E00070E083E090E00E948308FF91EF91BF914D
:1013F000AF919F918F917F916F915F914F913F91AD
:101400002F910F900BBE0F900FBE0F901F9018954D
:101410001F920F920FB60F9211240BB60F922F93BB
:101420003F934F935F936F937F938F939F93AF936C
:10143000BF93EF93FF9348E950E064E970E082E0E6
:1014400090E00E948308FF91EF91BF91AF919F912F
:101450008F917F916F915F914F913F912F910F905D
:101460000BBE0F900FBE0F901F9018951F920F92FA
:101470000FB60F9211240BB60F922F933F934F93F9
:101480005F936F937F938F939F93AF93BF93EF93EC
:10149000FF9348E850E064E870E081E090E00E944B
:1014A0008308FF91EF91BF91AF919F918F917F91B1
:1014B0006F915F914F913F912F910F900BBE0F90C5
:1014C0000FBE0F901F9018951F920F920FB60F929C
:1014D00011240F931F932F933F934F935F936F9319
:1014E0007F938F939F93AF93BF934091240150912B
:1014F00025018091560490915704D09B13C021E0A0
:101500002ABB9C012F5F3F4F41150AEF500730F473
:10151000C901309357042093560404C030935704F4
:101520002093560420915804309159042F5F3F4F67
:1015300060915004709151042617370778F110928A
:10154000590410925804A0E0B0E0DC0199278827E4
:10155000840F951FA11DB11D409152045091530459
:1015600060915404709155048C019D01041B150B6E
:10157000260B370B00935B0410935C0420935D04EF
:1015800030935E048093520490935304A0935404C8
:10159000B093550481E080935A0404C030935904F9
:1015A00020935804BF91AF919F918F917F916F913C
:1015B0005F914F913F912F911F910F910F900FBE0F
:1015C0000F901F9018950895AF92BF92DF92EF92FF
:1015D000FF920F931F93CF93DF93EC017B018B015D
:1015E0005C0184E0A80EB11CF801D1908F01CE01FE
:1015F0000E948117D81621F06D2DCE010E94891707
:101600002196CA15DB0581F7C701DF91CF911F91A4
:101610000F91FF90EF90DF90BF90AF900895CF9221
:10162000DF92EF92FF920F931F93CF93DF93EB0123
:101630007B0124E0E20EF11C8B016C01C61AD70A73
:10164000C601800F911F0E948117F80181938F01BD
:10165000EE15FF05A9F7CE01DF91CF911F910F91F4
:10166000FF90EF90DF90CF9008953FB7F89480916E
:10167000A3069091A406A091A506B091A60626B552
:10168000A89B05C02F3F19F00196A11DB11D3FBFBA
:10169000BA2FA92F982F8827820F911DA11DB11D48
:1016A000BC01CD0142E0660F771F881F991F4A9544
:1016B000D1F7089590E0FC013197E231F10508F08F
:1016C0004EC08827EE58FF4F8F4F0C94061880911C
:1016D00080008F7703C0809180008F7D8093800091
:1016E000089580918000877FF9CF84B58F7702C0FD
:1016F00084B58F7D84BD08958091B0008F7703C03D
:101700008091B0008F7D8093B0000895809190000B
:101710008F7707C0809190008F7D03C080919000EB
:10172000877F8093900008958091A0008F7707C0F5
:101730008091A0008F7D03C08091A000877F80935F
:10174000A0000895809120018F7707C0809120012B
:101750008F7D03C080912001877F809320010895B1
:10176000CF93DF9390E0FC01EE5EFD4F2491FC01EE
:10177000E453FE4F8491882361F190E0880F991F14
:10178000FC01E256FD4FC591D491FC01E856FE4F95
:10179000A591B491611109C09FB7F89488812095F3
:1017A00082238883EC912E230BC0623061F49FB7B3
:1017B000F8948881322F309583238883EC912E2BE7
:1017C0002C939FBF06C08FB7F894E8812E2B2883F7
:1017D0008FBFDF91CF9108958F929F92AF92BF926A
:1017E000CF92DF92EF92FF926B017C010E94350B4A
:1017F0004B015C01C114D104E104F104F1F00E9439
:10180000350BDC01CB0188199909AA09BB09883E6F
:101810009340A105B10570F321E0C21AD108E10897
:10182000F10888EE880E83E0981EA11CB11CC1143B
:10183000D104E104F10419F7DDCFFF90EF90DF90C0
:10184000CF90BF90AF909F908F9008952FB7F8944E
:1018500060919F067091A0068091A1069091A206CA
:101860002FBF08951F920F920FB60F9211242F933E
:101870003F938F939F93AF93BF9380919F069091D7
:10188000A006A091A106B091A20630919E0623E089
:10189000230F2D3720F40196A11DB11D05C026E8A8
:1018A000230F0296A11DB11D20939E0680939F06D3
:1018B0009093A006A093A106B093A2068091A306E0
:1018C0009091A406A091A506B091A6060196A11D2F
:1018D000B11D8093A3069093A406A093A506B09390
:1018E000A606BF91AF919F918F913F912F910F903D
:1018F0000FBE0F901F901895CF93DF9300D01F92CB
:10190000CDB7DEB7789484B5826084BD84B581603C
:1019100084BD85B5826085BD85B5816085BD8091BA
:101920006E00816080936E00109281008091810032
:10193000826080938100809181008160809381002A
:10194000809180008160809380008091B1008460EC
:101950008093B1008091B00081608093B00080914D
:1019600091008260809391008091910081608093CA
:101970009100809190008160809390008091A100FF
:1019800082608093A1008091A10081608093A1007A
:101990008091A00081608093A000809121018260ED
:1019A00080932101809121018160809321018091A8
:1019B000200181608093200180917A00846080936F
:1019C0007A0080917A00826080937A0080917A0018
:1019D000816080937A0080917A00806880937A0099
:1019E0001092C10062E088E00E94B00B62E087E0E4
:1019F0000E94B00B62E086E00E94B00B61E08DE0D7
:101A00000E94B00BE091BD04F091BE0482E080839F
:101A1000E091BD04F091BE041082E091B904F09110
:101A2000BA041082E091BB04F091BC0480E1808391
:101A30001092C504E091C104F091C20486E0808355
:101A4000E091BF04F091C004808180618083E091C7
:101A5000BF04F091C004808188608083E091BF045E
:101A6000F091C004808180688083E091BF04F09190
:101A7000C00480818F7D808360ED77E080E090E01E
:101A80000E94EC0B66E172E080E190E00E940F0B97
:101A90006AE072E08091EF059091F0050E940F0BD3
:101AA00064EF71E080E090E00E94EC0B80E092E057
:101AB0009093DF058093DE0585E699E3A9EEB9E30F
:101AC0008093040290930502A0930602B09307024C
:101AD0008AE097EDA3EAB9E38093000290930102B4
:101AE000A0930202B093030210929B0410929A04F6
:101AF00010929F041092A00410929E0481E08093A3
:101B00009D0410929C0461E084E10E94A20661E0C1
:101B100085E10E94A2068091B9008E7F8093B90072
:101B20008091B9008D7F8093B90088E48093B800DC
:101B300085E48093BC008EE192E0909397048093BB
:101B400096048FE192E0909399048093980480E04A
:101B500090E0A8ECB2E48093700490937104A09399
:101B60007204B09373048091EC05803308F053C085
:101B700061E08EE00E94B00B8091EC05E82FF0E070
:101B80009F01220F331FE20FF31FE65BFA4F908194
:101B9000907C9E6090831092ED051092EE056CE0B3
:101BA0000E94FA179CE0899FB001112440E050E0A8
:101BB0009B01240F351FF901EE0FFF1F2E0F3F1F52
:101BC000F901E65BFA4F908196FD18C04F5F5F4FB9
:101BD0004C30510569F7813011F00C947716109252
:101BE000800082E080938100109285001092840032
:101BF000B19A80916F00826080936F00E091EC0554
:101C0000F0E0CF01880F991FE80FF91FE65BFA4F4C
:101C100080818064808384E893E00E941A0410929B
:101C200059041092580410925704109256041092BE
:101C300052041092530410925404109255041092BE
:101C40005A0480912001809121011092210110926B
:101C50002001109225011092240181E08ABB10928C
:101C600073008091B0008091B1001092B10082E0C9
:101C70008093B00099EF9093B30096E090935F0447
:101C800087BB1092B20029E130E0309351042093D9
:101C900050049FB7F89483BD20915F042093B10056
:101CA000809370008BE08150F1F787E080932101F1
:101CB0009FBF84E692E00E94BE0281E792E00E940C
:101CC000BE020E94BA0282E892E00E94BE028AE945
:101CD00092E00E94BE028CEA92E00E94BE020E9444
:101CE000BA0287EB92E00E94BE028AEC92E00E9468
:101CF000DF03609116027091170280911802909193
:101D0000190245E050E00E94DD038AED92E00E9456
:101D1000BE0287EE92E00E94DF0360910A0270919A
:101D20000B0280910C0290910D0245E050E00E9460
:101D3000DD0386EF92E00E94BE0280E093E00E9405
:101D4000DF03609104027091050280910602909178
:101D5000070248E050E00E94DD038FE093E00E941C
:101D6000BE0288E193E00E94DF036091000270915F
:101D70000102809102029091030248E050E00E942B
:101D8000DD0389E293E00E94BE020E94BA028DEA5E
:101D900094E00E94260861E08DE00E94A20687E0A0
:101DA0000E945E06892B09F037C184E893E00E9407
:101DB0001A0460E08DE00E94A20660ED77E080E00A
:101DC00090E00E94EC0B10922C0210922D021092C7
:101DD0002E0210922F0210922802109229021092C5
:101DE0002A0210922B0210922402109225021092C5
:101DF000260210922702E12CF12C84EFE81681E0F4
:101E0000F80609F478C081E00E947404BC0180E007
:101E100090E00E9428199B01AC0160912C02709106
:101E20002D0280912E0290912F020E94161860932D
:101E30002C0270932D0280932E0290932F0280EE3D
:101E400095E00E9487068823D1F386EE95E00E94F4
:101E500087068823A1F380EE95E00E94D1060E94B8
:101E60002A1920E030E048EC52E40E9487189B01D8
:101E7000AC01609128027091290280912A02909110
:101E80002B020E94161860932802709329028093F7
:101E90002A0290932B0280EE95E00E948706882309
:101EA000D1F386EE95E00E9487068823A1F386EEA3
:101EB00095E00E94D1060E942A1920E030E048EC0B
:101EC00052E40E9487189B01AC016091240270913A
:101ED000250280912602909127020E941618609395
:101EE00024027093250280932602909327029FEF8D
:101EF000E91AF90A82CF20E030E04AEF53E460911A
:101F00002C0270912D0280912E0290912F020E943E
:101F1000871860932C0270932D0280932E02909369
:101F20002F0220E030E04AEF53E4609128027091E4
:101F3000290280912A0290912B020E9487186093B7
:101F400028027093290280932A0290932B0220E0AA
:101F500030E04AEF53E460912402709125028091B1
:101F60002602909127020E948718609324027093A2
:101F70002502809326029093270282E393E00E9439
:101F8000BE0286E593E00E94DF0382E292E00E94B7
:101F9000DF030E94260C4AE00E94CA0282E292E01D
:101FA0000E94DF0360912C0270912D0280912E021D
:101FB00090912F0240E050E00E94DD0382E292E027
:101FC0000E94DF03609128027091290280912A0209
:101FD00090912B0240E050E00E94DD0382E292E00B
:101FE0000E94DF03609124027091250280912602F5
:101FF0009091270240E050E00E9468040E94BA02DB
:102000008AE593E00E94BE028DEA94E00E942608D1
:1020100061E08DE00E94A20686E00E945E06892BA8
:1020200009F028C384E893E00E941A0460E08DE080
:102030000E94A20660ED77E080E090E00E94EC0B49
:1020400086E00E945E06019799F461E08DE00E94AF
:10205000A20666E970E080E090E00E94EC0B60E090
:102060008DE00E94A20668E572E080E090E0E6CF95
:1020700060E08DE00E94A20660ED77E080E090E0F5
:102080000E94EC0B10921E0210921F02109220026E
:1020900010922102E12CF12C94EFE91691E0F9065F
:1020A00051F186EE95E00E9487068823D1F386EEF3
:1020B00095E00E94D1060E942A1920E030E048EC09
:1020C00052E40E9487189B01AC0160911E0270913E
:1020D0001F0280912002909121020E9416186093A5
:1020E0001E0270931F0280932002909321028FEFB3
:1020F000E81AF80AD1CF20E030E04AEF53E46091CB
:102100001E0270911F0280912002909121020E9474
:1021100087184B015C0160931E0270931F0280932D
:1021200020029093210286E00E945E06019749F505
:1021300061E08DE00E94A20666E970E080E090E038
:102140000E94EC0B60E08DE00E94A20666E970E060
:1021500080E090E00E94EC0B61E08DE00E94A2061E
:1021600066E970E080E090E00E94EC0B60E08DE0BA
:102170000E94A20664EF71E080E090E00E94EC0B08
:10218000D2CF60E08DE00E94A20660ED77E080E0B3
:1021900090E00E94EC0B10921A0210921B02109217
:1021A0001C0210921D02E12CF12C94EFE91691E033
:1021B000F90651F186EE95E00E9487068823D1F357
:1021C00086EE95E00E94D1060E942A1920E030E0B8
:1021D00048EC52E40E9487189B01AC0160911A02FE
:1021E00070911B0280911C0290911D020E94161892
:1021F00060931A0270931B0280931C0290931D023D
:102200008FEFE81AF80AD1CF20E030E04AEF53E42C
:1022100060911A0270911B0280911C0290911D0224
:102220000E94871860931A0270931B0280931C020D
:1022300090931D02A50194010E9415189B01AC0109
:1022400060E070E082E694E40E94871860931602D2
:1022500070931702809318029093190286E00E94EF
:102260005E060197E9F561E08DE00E94A20666E94D
:1022700070E080E090E00E94EC0B60E08DE00E9456
:10228000A20666E970E080E090E00E94EC0B61E05D
:102290008DE00E94A20666E970E080E090E00E9476
:1022A000EC0B60E08DE00E94A20666E970E080E041
:1022B00090E00E94EC0B61E08DE00E94A20666E9CE
:1022C00070E080E090E00E94EC0B60E08DE00E9406
:1022D000A20664EF71E080E090E00E94EC0BBECFBC
:1022E00060E08DE00E94A20660ED77E080E090E083
:1022F0000E94EC0B10921202109213021092140220
:1023000010921502E12CF12C94EFE91691E0F906F8
:1023100051F180EE95E00E9487068823D1F380EE8C
:1023200095E00E94D1060E942A1920E030E048EC96
:1023300052E40E9487189B01AC01609112027091D7
:10234000130280911402909115020E941618609356
:1023500012027093130280931402909315028FEF70
:10236000E81AF80AD1CF20E030E04AEF53E4609158
:1023700012027091130280911402909115020E9432
:1023800087184B015C0160931202709313028093D3
:1023900014029093150286E00E945E06019709F0F0
:1023A00051C061E08DE00E94A20666E970E080E025
:1023B00090E00E94EC0B60E08DE00E94A20666E9CE
:1023C00070E080E090E00E94EC0B61E08DE00E9404
:1023D000A20666E970E080E090E00E94EC0B60E00D
:1023E0008DE00E94A20666E970E080E090E00E9425
:1023F000EC0B61E08DE00E94A20666E970E080E0EF
:1024000090E00E94EC0B60E08DE00E94A20666E97D
:1024100070E080E090E00E94EC0B61E08DE00E94B3
:10242000A20666E970E080E090E00E94EC0B60E0BC
:102430008DE00E94A20664EF71E080E090E00E94CF
:10244000EC0BA9CF60E08DE00E94A20660ED77E082
:1024500080E090E00E94EC0B10920E0210920F02AE
:102460001092100210921102E12CF12C94EFE91657
:1024700091E0F90651F180EE95E00E9487068823ED
:10248000D1F380EE95E00E94D1060E942A1920E047
:1024900030E048EC52E40E9487189B01AC01609147
:1024A0000E0270910F0280911002909111020E9411
:1024B000161860930E0270930F028093100290938F
:1024C00011028FEFE81AF80AD1CF20E030E04AEF8E
:1024D00053E460910E0270910F028091100290916E
:1024E00011020E94871860930E0270930F0280936E
:1024F000100290931102A50194010E9415189B01EE
:10250000AC0160E070E082EB93E40E948718609376
:102510000A0270930B0280930C0290930D028BEBD6
:1025200093E00E94BE028DEA94E00E9426088DE3AB
:1025300094E00E94DF0382E292E00E94DF030E94A7
:10254000260C4AE00E94CA0282E292E00E94DF0367
:1025500042E050E060E070E082E694E40E94DD0337
:1025600082E292E00E94DF0360911E0270911F02DE
:10257000809120029091210242E050E00E94DD0310
:1025800082E292E00E94DF0360911A0270911B02C6
:1025900080911C0290911D0242E050E00E94DD03F8
:1025A00082E292E00E94DF036091160270911702AE
:1025B000809118029091190245E050E00E94DD03DD
:1025C00082E292E00E94DF0342E050E060E070E0CF
:1025D00082EB93E40E94DD0382E292E00E94DF033B
:1025E0006091120270911302809114029091150271
:1025F00042E050E00E94DD0382E292E00E94DF03AD
:1026000060910E0270910F02809110029091110260
:1026100042E050E00E94DD0382E292E00E94DF038C
:1026200060910A0270910B0280910C0290910D0250
:1026300045E050E00E9468040E94BA028DEA94E0EE
:102640000E94260866E172E080E190E00E94E40AC0
:102650006AE072E08091EF059091F0050E94E40A33
:1026600064EF71E080E090E00E94EC0B61E08DE0AF
:102670000E94A20688E00E945E06019729F48091DC
:102680000902882309F463C388E00E945E06892B4F
:1026900009F02AC30E94260C6B017C0160937E0422
:1026A00070937F04809380049093810420E030E055
:1026B00040E85FE3609192047091930480919404E8
:1026C000909195040E94161860939204709393045D
:1026D000809394049093950480917A0490917B0464
:1026E000A0917C04B0917D04C81AD90AEA0AFB0AB9
:1026F0009FE0C916D104E104F104B8F180917B0098
:10270000877F80937B0080E480937C0080917A00B7
:10271000806480937A0080917A0086FDFCCFA0913E
:10272000780080917900B0E0B82B28EE33E00E9469
:102730000E182FEF33E040E050E00E949717DA01C7
:10274000C90188519C4FAF4FBF4F9093790480933C
:1027500078040E94E1030E94260C60937A0470932F
:102760007B0480937C0490937D04809109028130E6
:1027700091F480917E0490917F04A0918004B091A7
:1027800081048093740490937504A0937604B093AD
:1027900077041092090280E00E947404BC0180E07A
:1027A00090E00E9428199B01AC0160918E04709109
:1027B0008F0480919004909191040E941618609368
:1027C0008E0470938F04809390049093910481E021
:1027D0000E947404BC0180E090E00E9428199B01D3
:1027E000AC0160918A0470918B0480918C0490916B
:1027F0008D040E94161860938A0470938B04809352
:102800008C0490938D0480EE95E00E94D1060E9486
:102810002A1920E030E048EC52E40E9487189B011E
:10282000AC01609186047091870480918804909136
:1028300089040E941618609386047093870480931D
:1028400088049093890486EE95E00E94D1060E9448
:102850002A1920E030E048EC52E40E9487189B01DE
:10286000AC01609182047091830480918404909102
:1028700085040E94161860938204709383048093E9
:1028800084049093850480915A04882319F12FB70A
:10289000F89460915B0470915C0480915D04909168
:1028A0005E0410925A042FBF0E9428199B01AC01AC
:1028B000609170047091710480917204909173041E
:1028C0000E94DF1960936C0470936D0480936E0412
:1028D00090936F0480917E0490917F04A091800476
:1028E000B091810440917404509175046091760414
:1028F00070917704841B950BA60BB70B0C97A10561
:10290000B10508F4F1C1C0909204D0909304E09016
:102910009404F0909504A701960160918A04709147
:102920008B0480918C0490918D040E9487182B0158
:102930003C01A70196016091860470918704809103
:102940008804909189040E9487184B015C01A701BB
:102950009601609182047091830480918404909127
:1029600085040E94871869837A838B839C83A701DF
:10297000960160918E0470918F04809190049091E3
:1029800091040E9487182091040230910502409121
:102990000602509107020E94DF196B017C016093CF
:1029A0008E0470938F0480939004909391042091EF
:1029B0002C0230912D0240912E0250912F02C30122
:1029C000B2010E941518209100023091010240913D
:1029D0000202509103020E94DF192B013C01609317
:1029E0008A0470938B0480938C0490938D042091BF
:1029F00028023091290240912A0250912B02C501F0
:102A0000B4010E94151820910A0230910B024091E6
:102A10000C0250910D020E94DF196093860470939E
:102A20008704809388049093890420912402309134
:102A30002502409126025091270269817A818B817B
:102A40009C810E9415182091160230911702409126
:102A50001802509119020E94DF194B015C0160932A
:102A60008204709383048093840490938504A3016B
:102A70009201C701B6010E94DF196B017C016093CE
:102A800068047093690480936A0490936B0420E651
:102A900034E743E85FE3C501B4010E94DF192091E8
:102AA0006C0430916D0440916E0450916F040E944B
:102AB000DF1920E030E543EC57E40E94871860936B
:102AC0006404709365048093660490936704A7017F
:102AD00096010E948718609360047093610480934C
:102AE0006204909363046091080270E080E090E0DB
:102AF0004AE00E94CA0282E292E00E94DF036091F3
:102B00007E0470917F0480918004909181044AE05A
:102B10000E94CA0282E292E00E94DF036091920466
:102B200070919304809194049091950440E050E05A
:102B30000E94DD0382E292E00E94DF03609178044C
:102B400070917904072E000C880B990B0E942A19AA
:102B500020E030E04AE754E40E94151820E030E01D
:102B600048EC52E40E94DF1920E030E04AE754E4E8
:102B70000E94871840E050E00E94DD0382E292E06C
:102B80000E94DF0360916C0470916D0480916E046B
:102B900090916F0440E050E00E94DD0382E292E0F9
:102BA0000E94DF0360918E0470918F0480919004E5
:102BB0009091910443E050E00E94DD0382E292E0B4
:102BC0000E94DF0360918A0470918B0480918C04D1
:102BD00090918D0443E050E00E94DD0382E292E098
:102BE0000E94DF03609186047091870480918804BD
:102BF0009091890443E050E00E94DD0382E292E07C
:102C00000E94DF03609182047091830480918404A8
:102C10009091850443E050E00E94DD0382E292E05F
:102C20000E94DF03609168047091690480916A04D6
:102C300090916B0442E050E00E94DD0382E292E05A
:102C40000E94DF03609164047091650480916604C2
:102C50009091670442E050E00E94DD0382E292E03E
:102C60000E94DF03609160047091610480916204AE
:102C70009091630444E050E00E9468048DEA94E07F
:102C80000E942608109292041092930410929404C9
:102C90001092950410928E0410928F04109290045A
:102CA0001092910410928A0410928B0410928C045A
:102CB00010928D041092860410928704109288045A
:102CC000109289041092820410928304109284045A
:102CD000109285040E94260C60937404709375040E
:102CE00080937604909377040E94480858C88230F5
:102CF00069F41092900080939100109295001092C8
:102D0000940088BB809371000C94FE0D833071F4A5
:102D10001092A00082E08093A1001092A500109272
:102D2000A40089BB809372000C94FE0D81110C9459
:102D3000FE0D1092200182E0809321011092250166
:102D4000109224018ABB809373000C94FE0D84E8DA
:102D500093E00E941A0481E08093090280910802A6
:102D60008F5F809308021092920410929304109245
:102D700094041092950410928E0410928F04109275
:102D800090041092910410928A0410928B04109275
:102D90008C0410928D041092860410928704109275
:102DA0008804109289041092820410928304109275
:102DB00084041092850461E08DE00E94A20664CC38
:102DC0001092A4041092A30488EE93E0A0E0B0E077
:102DD0008093A5049093A604A093A704B093A8049D
:102DE0002AE332E03093A2042093A1041092B004AD
:102DF0001092AF048093B1049093B204A093B304F3
:102E0000B093B4048CE492E09093AE048093AD044C
:102E100085EC90E09093BA048093B90484EC90E040
:102E20009093BC048093BB0480EC90E09093BE042C
:102E30008093BD0481EC90E09093C0048093BF0424
:102E400082EC90E09093C2048093C10486EC90E001
:102E50009093C4048093C3041092C6041092C704D4
:102E60001092C8041092C90484E190E09093F00598
:102E70008093EF058091DA058033A0F491E0980FFC
:102E80009093DA058093EC0590E0FC01EE0FFF1FB4
:102E90008E0F9F1FFC01E65BFA4F88EB9BE092834D
:102EA000818303C08FEF8093EC052EE532E03093F1
:102EB000E7052093E60582E08093E80584E08093AF
:102EC000E90581E08093EA051092EB053093E10576
:102ED0002093E00593E09093E2059CE09093E30556
:102EE0008093E4051092E50588E48093DB05109259
:102EF000DF051092DE0588E08093DC051092DD0589
:102F00000895F999FECF92BD81BDF89A992780B5B1
:102F10000895262FF999FECF1FBA92BD81BD20BD1D
:102F20000FB6F894FA9AF99A0FBE01960895052EF5
:102F300097FB1EF400940E94AE1757FD07D00E9425
:102F4000C91707FC03D04EF40C94AE17509540956A
:102F5000309521953F4F4F4F5F4F08959095809545
:102F6000709561957F4F8F4F9F4F08950E94EB178B
:102F7000A59F900DB49F900DA49F800D911D1124CD
:102F80000895B7FF0C94B6170E94B617821B930BD7
:102F90000895A1E21A2EAA1BBB1BFD010DC0AA1F9A
:102FA000BB1FEE1FFF1FA217B307E407F50720F0B2
:102FB000A21BB30BE40BF50B661F771F881F991F2D
:102FC0001A9469F760957095809590959B01AC0176
:102FD000BD01CF010895A29FB001B39FC001A39F7F
:102FE000700D811D1124911DB29F700D811D112442
:102FF000911D0895991B79E004C0991F961708F058
:10300000961B881F7A95C9F780950895EE0FFF1FCC
:10301000881F8BBF0790F691E02D19940E94EB1743
:10302000B7FF0895821B930B08955058BB27AA271A
:103030000E942D180C94A0190E94921938F00E9439
:10304000991920F039F49F3F19F426F40C948F1944
:103050000EF4E095E7FB0C948919E92F0E94B11951
:1030600058F3BA17620773078407950720F079F4BD
:10307000A6F50C94D3190EF4E0950B2EBA2FA02DC3
:103080000B01B90190010C01CA01A0011124FF2715
:10309000591B99F0593F50F4503E68F11A16F04010
:1030A000A22F232F342F4427585FF3CF469537950F
:1030B0002795A795F0405395C9F77EF41F16BA0BD4
:1030C000620B730B840BBAF09150A1F0FF0FBB1F82
:1030D000661F771F881FC2F70EC0BA0F621F731FCB
:1030E000841F48F4879577956795B795F7959E3F28
:1030F00008F0B0CF9395880F08F09927EE0F9795B9
:10310000879508950E94651908F481E008950E944A
:103110009B180C94A0190E94991958F00E949219BA
:1031200040F029F45F3F29F00C94891951110C9457
:10313000D4190C948F190E94B11968F39923B1F333
:10314000552391F3951B550BBB27AA2762177307CD
:10315000840738F09F5F5F4F220F331F441FAA1F61
:10316000A9F335D00E2E3AF0E0E832D0915050401D
:10317000E695001CCAF72BD0FE2F29D0660F771FCB
:10318000881FBB1F261737074807AB07B0E809F0B1
:10319000BB0B802DBF01FF2793585F4F3AF09E3F36
:1031A000510578F00C9489190C94D4195F3FE4F31D
:1031B000983ED4F3869577956795B795F7959F5F79
:1031C000C9F7880F911D9695879597F90895E1E0C5
:1031D000660F771F881FBB1F621773078407BA0724
:1031E00020F0621B730B840BBA0BEE1F88F7E0957F
:1031F00008950E94B91988F09F5798F0B92F992720
:10320000B751B0F0E1F0660F771F881F991F1AF0D1
:10321000BA95C9F714C0B13091F00E94D319B1E04A
:1032200008950C94D319672F782F8827B85F39F049
:10323000B93FCCF3869577956795B395D9F73EF46A
:1032400090958095709561957F4F8F4F9F4F089512
:10325000E89409C097FB3EF4909580957095619530
:103260007F4F8F4F9F4F9923A9F0F92F96E9BB27E6
:103270009395F695879577956795B795F111F8CF62
:10328000FAF4BB0F11F460FF1BC06F5F7F4F8F4FCD
:103290009F4F16C0882311F096E911C0772321F0C3
:1032A0009EE8872F762F05C0662371F096E8862F5B
:1032B00070E060E02AF09A95660F771F881FDAF7B2
:1032C000880F9695879597F90895990F0008550FDF
:1032D000AA0BE0E8FEEF16161706E807F907C0F09C
:1032E00012161306E407F50798F0621B730B840BA4
:1032F000950B39F40A2661F0232B242B252B21F47E
:1033000008950A2609F4A140A6958FEF811D811D1D
:10331000089597F99F6780E870E060E008959FEF57
:1033200080EC089500240A9416161706180609065C
:10333000089500240A94121613061406050608952B
:10334000092E0394000C11F4882352F0BB0F40F4B3
:10335000BF2B11F460FF04C06F5F7F4F8F4F9F4FF3
:10336000089557FD9058440F551F59F05F3F71F075
:103370004795880F97FB991F61F09F3F79F08795DC
:103380000895121613061406551FF2CF4695F1DF65
:1033900008C0161617061806991FF1CF86957105F5
:1033A000610508940895E894BB2766277727CB0129
:1033B00097F908950E94651908F48FEF08950E9407
:1033C000F2190C94A0190E94921938F00E949919D0
:1033D00020F0952311F00C9489190C948F19112465
:1033E0000C94D4190E94B11970F3959FC1F3950FF5
:1033F00050E0551F629FF001729FBB27F00DB11D79
:10340000639FAA27F00DB11DAA1F649F6627B00D08
:10341000A11D661F829F2227B00DA11D621F739FF1
:10342000B00DA11D621F839FA00D611D221F749FFF
:103430003327A00D611D231F849F600D211D822F46
:10344000762F6A2F11249F5750409AF0F1F088236D
:103450004AF0EE0FFF1FBB1F661F771F881F91509A
:103460005040A9F79E3F510580F00C9489190C94A7
:10347000D4195F3FE4F3983ED4F38695779567952A
:10348000B795F795E7959F5FC1F7FE2B880F911DC4
:103490009695879597F908950E946519880B990B61
:1034A00008950F931F93CF93DF938230910510F40B
:1034B00082E090E0E091A906F091AA0620E030E0D9
:1034C000A0E0B0E0309719F1408151810281138171
:1034D00048175907C8F08417950769F4109731F019
:1034E00012960C93129713961C9327C00093A9066B
:1034F0001093AA0622C02115310519F0421753076F
:1035000018F49A01BD01EF01DF01F801DBCF2115AD
:103510003105F9F0281B390B2430310580F48A81FC
:103520009B816115710521F0FB019383828304C0A7
:103530009093AA068093A906FE01329644C0FE012C
:10354000E20FF31F8193919322503109398328832D
:103550003AC02091A7063091A806232B41F4209170
:103560003202309133023093A8062093A7062091AF
:103570003002309131022115310541F42DB73EB7AB
:103580004091340250913502241B350BE091A7067F
:10359000F091A806E217F307A0F42E1B3F0B2817A3
:1035A000390778F0AC014E5F5F4F2417350748F0BC
:1035B0004E0F5F1F5093A8064093A70681939193E7
:1035C00002C0E0E0F0E0CF01DF91CF911F910F91B9
:1035D0000895CF93DF93009709F481C0FC013297DF
:1035E00013821282A091A906B091AA06109781F4C5
:1035F00020813181820F931F2091A7063091A80668
:103600002817390751F5F093A806E093A70667C07D
:10361000ED0120E030E0CE17DF0740F44A815B8106
:103620009E0141155105F1F0EA01F5CFD383C28324
:1036300040815181840F951FC817D90759F488819B
:103640009981840F951F0296918380838A819B8143
:10365000938382832115310529F4F093AA06E09320
:10366000A9063DC0E901FB83EA8349915991C40F42
:10367000D51FEC17FD0761F480819181840F951FA0
:103680000296E90199838883828193819B838A834F
:10369000E0E0F0E012968D919C911397009719F05D
:1036A000FD01DC01F7CF8D919C9111979D012E5F5B
:1036B0003F4F820F931F2091A7063091A80628172D
:1036C000390769F4309729F41092AA061092A906D6
:1036D00002C013821282B093A806A093A706DF91BE
:1036E000CF91089581E090E0F8940C94771BF894C2
:0236F000FFCF0A
:1036F200D72FD83CF241CF3C010139B4883F00803A
:10370200DE430000DC420000504000C042440000A2
:10371200FA432C000000FA430000DC420000FA43A6
:103722000000AB0680000000000079024C026D0729
:10373200200244023002210200000000D9074207A1
:1037420070072608A1077F07930700000000E30A1D
:103752004A091000424C2044796E6F204D65676122
:103762000062793A204B6576696E204265726E611D
:103772007300436F6C756D6E2031207370656369E1
:10378200616C20636F6465733A00393920203D20F3
:1037920043616C6962726174696F6E00313030200E
:1037A2003D20546172650053746F726564205061EC
:1037B20072616D65746572733A00546F72717565EA
:1037C20020536C6F7065203D2000205B676D2A637B
:1037D2006D2F6269745D00466F72636520536C6F72
:1037E2007065203D2000205B676D2F6269745D006B
:1037F200566261747420536C6F7065203D20002006
:103802005B562F6269745D0043757272656E742037
:10381200536C6F7065203D2000205B412F626974FC
:103822005D00546172652C54696D65205B6D735D3A
:103832002C43757272656E742C466F7263652C54DC
:103842006F72717565003130300044617461736567
:10385200742C54696D655B6D735D2C53616D706C76
:1038620065732C5468726F74746C652C52504D2CB5
:1038720056626174742C43757272656E742C54684E
:10388200727573745B676D5D2C546F727175655BD5
:10389200676D2A636D5D2C50696E5B575D2C506FAE
:1038A20075745B575D2C656666790043616C2C7498
:1038B2005B6D735D2C746F727175654C6F61645BC7
:1038C200676D2A636D5D2C746F72717565546172D8
:1038D200652C746F727175654C6F616465642C74CC
:1038E2006F72717565536C6F70655B676D2A636D7E
:1038F2002F6269745D2C666F7263654C6F61645BE5
:10390200676D5D2C666F726365546172652C666FBC
:103912007263654C6F616465642C666F7263655394
:103922006C6F70655B676D2F6269745D0039390079
:103932000D0A006E616E00696E66006F76660000A9
:00000001FF
